{
  "contractName": "Election",
  "abi": [
    {
      "inputs": [],
      "payable": false,
      "stateMutability": "nonpayable",
      "type": "constructor"
    },
    {
      "constant": true,
      "inputs": [],
      "name": "admin",
      "outputs": [
        {
          "internalType": "address",
          "name": "",
          "type": "address"
        }
      ],
      "payable": false,
      "stateMutability": "view",
      "type": "function"
    },
    {
      "constant": true,
      "inputs": [
        {
          "internalType": "uint256",
          "name": "",
          "type": "uint256"
        }
      ],
      "name": "ballotDetails",
      "outputs": [
        {
          "internalType": "uint256",
          "name": "ballotId",
          "type": "uint256"
        },
        {
          "internalType": "address",
          "name": "voterAddress",
          "type": "address"
        },
        {
          "internalType": "uint256",
          "name": "candidateId",
          "type": "uint256"
        },
        {
          "internalType": "bytes32",
          "name": "ballotHash",
          "type": "bytes32"
        }
      ],
      "payable": false,
      "stateMutability": "view",
      "type": "function"
    },
    {
      "constant": true,
      "inputs": [
        {
          "internalType": "uint256",
          "name": "",
          "type": "uint256"
        }
      ],
      "name": "candidateDetails",
      "outputs": [
        {
          "internalType": "uint256",
          "name": "candidateId",
          "type": "uint256"
        },
        {
          "internalType": "string",
          "name": "header",
          "type": "string"
        },
        {
          "internalType": "string",
          "name": "description",
          "type": "string"
        },
        {
          "internalType": "uint256",
          "name": "voteCount",
          "type": "uint256"
        }
      ],
      "payable": false,
      "stateMutability": "view",
      "type": "function"
    },
    {
      "constant": true,
      "inputs": [
        {
          "internalType": "address",
          "name": "",
          "type": "address"
        }
      ],
      "name": "voterDetails",
      "outputs": [
        {
          "internalType": "address",
          "name": "voterAddress",
          "type": "address"
        },
        {
          "internalType": "string",
          "name": "name",
          "type": "string"
        },
        {
          "internalType": "string",
          "name": "email",
          "type": "string"
        },
        {
          "internalType": "bool",
          "name": "isVerified",
          "type": "bool"
        },
        {
          "internalType": "bool",
          "name": "hasVoted",
          "type": "bool"
        },
        {
          "internalType": "bool",
          "name": "isRegistered",
          "type": "bool"
        }
      ],
      "payable": false,
      "stateMutability": "view",
      "type": "function"
    },
    {
      "constant": true,
      "inputs": [
        {
          "internalType": "uint256",
          "name": "",
          "type": "uint256"
        }
      ],
      "name": "voters",
      "outputs": [
        {
          "internalType": "address",
          "name": "",
          "type": "address"
        }
      ],
      "payable": false,
      "stateMutability": "view",
      "type": "function"
    },
    {
      "constant": true,
      "inputs": [],
      "name": "getAdmin",
      "outputs": [
        {
          "internalType": "address",
          "name": "",
          "type": "address"
        }
      ],
      "payable": false,
      "stateMutability": "view",
      "type": "function"
    },
    {
      "constant": false,
      "inputs": [
        {
          "internalType": "string",
          "name": "_adminName",
          "type": "string"
        },
        {
          "internalType": "string",
          "name": "_adminEmail",
          "type": "string"
        },
        {
          "internalType": "string",
          "name": "_electionTitle",
          "type": "string"
        },
        {
          "internalType": "string",
          "name": "_electionDescription",
          "type": "string"
        }
      ],
      "name": "setElectionDetails",
      "outputs": [],
      "payable": false,
      "stateMutability": "nonpayable",
      "type": "function"
    },
    {
      "constant": true,
      "inputs": [],
      "name": "getElectionDetails",
      "outputs": [
        {
          "internalType": "string",
          "name": "adminName",
          "type": "string"
        },
        {
          "internalType": "string",
          "name": "adminEmail",
          "type": "string"
        },
        {
          "internalType": "string",
          "name": "electionTitle",
          "type": "string"
        },
        {
          "internalType": "string",
          "name": "electionDescription",
          "type": "string"
        }
      ],
      "payable": false,
      "stateMutability": "view",
      "type": "function"
    },
    {
      "constant": false,
      "inputs": [
        {
          "internalType": "string",
          "name": "_header",
          "type": "string"
        },
        {
          "internalType": "string",
          "name": "_description",
          "type": "string"
        }
      ],
      "name": "addCandidate",
      "outputs": [],
      "payable": false,
      "stateMutability": "nonpayable",
      "type": "function"
    },
    {
      "constant": true,
      "inputs": [],
      "name": "getTotalCandidate",
      "outputs": [
        {
          "internalType": "uint256",
          "name": "",
          "type": "uint256"
        }
      ],
      "payable": false,
      "stateMutability": "view",
      "type": "function"
    },
    {
      "constant": true,
      "inputs": [],
      "name": "getTotalVoter",
      "outputs": [
        {
          "internalType": "uint256",
          "name": "",
          "type": "uint256"
        }
      ],
      "payable": false,
      "stateMutability": "view",
      "type": "function"
    },
    {
      "constant": false,
      "inputs": [
        {
          "internalType": "string",
          "name": "_name",
          "type": "string"
        },
        {
          "internalType": "string",
          "name": "_email",
          "type": "string"
        }
      ],
      "name": "registerAsVoter",
      "outputs": [],
      "payable": false,
      "stateMutability": "nonpayable",
      "type": "function"
    },
    {
      "constant": false,
      "inputs": [
        {
          "internalType": "bool",
          "name": "_verifedStatus",
          "type": "bool"
        },
        {
          "internalType": "address",
          "name": "voterAddress",
          "type": "address"
        }
      ],
      "name": "verifyVoter",
      "outputs": [],
      "payable": false,
      "stateMutability": "nonpayable",
      "type": "function"
    },
    {
      "constant": false,
      "inputs": [
        {
          "internalType": "uint256",
          "name": "_candidateId",
          "type": "uint256"
        }
      ],
      "name": "vote",
      "outputs": [],
      "payable": false,
      "stateMutability": "nonpayable",
      "type": "function"
    },
    {
      "constant": false,
      "inputs": [],
      "name": "endElection",
      "outputs": [],
      "payable": false,
      "stateMutability": "nonpayable",
      "type": "function"
    },
    {
      "constant": true,
      "inputs": [],
      "name": "getStart",
      "outputs": [
        {
          "internalType": "bool",
          "name": "",
          "type": "bool"
        }
      ],
      "payable": false,
      "stateMutability": "view",
      "type": "function"
    },
    {
      "constant": true,
      "inputs": [],
      "name": "getEnd",
      "outputs": [
        {
          "internalType": "bool",
          "name": "",
          "type": "bool"
        }
      ],
      "payable": false,
      "stateMutability": "view",
      "type": "function"
    }
  ],
  "bytecode": "0x608060405234801561001057600080fd5b50336000806101000a81548173ffffffffffffffffffffffffffffffffffffffff021916908373ffffffffffffffffffffffffffffffffffffffff1602179055506000600181905550600060028190555060006003819055506000600460006101000a81548160ff0219169083151502179055506000600460016101000a81548160ff021916908315150217905550612089806100ae6000396000f3fe608060405234801561001057600080fd5b506004361061010b5760003560e01c806364d198a1116100a2578063c5292c6711610071578063c5292c6714610933578063da58c7d914610955578063ed836bc3146109c3578063f851a44014610b8a578063fee0d19a14610bd45761010b565b806364d198a1146106295780636e9960c3146106475780639f05a36d14610691578063a8e546f2146106b35761010b565b8063506b8e0a116100de578063506b8e0a146103315780635938750d1461038157806359f78468146104fe5780636247e532146105085761010b565b80630121b93f146101105780630b93400e1461013e57806326541b561461015c578063464ea809146102ae575b600080fd5b61013c6004803603602081101561012657600080fd5b8101908080359060200190929190505050610d26565b005b610146610fbe565b6040518082815260200191505060405180910390f35b6102ac6004803603604081101561017257600080fd5b810190808035906020019064010000000081111561018f57600080fd5b8201836020820111156101a157600080fd5b803590602001918460018302840111640100000000831117156101c357600080fd5b91908080601f016020809104026020016040519081016040528093929190818152602001838380828437600081840152601f19601f8201169050808301925050505050505091929192908035906020019064010000000081111561022657600080fd5b82018360208201111561023857600080fd5b8035906020019184600183028401116401000000008311171561025a57600080fd5b91908080601f016020809104026020016040519081016040528093929190818152602001838380828437600081840152601f19601f820116905080830192505050505050509192919290505050610fc8565b005b6102da600480360360208110156102c457600080fd5b81019080803590602001909291905050506110f1565b604051808581526020018473ffffffffffffffffffffffffffffffffffffffff1673ffffffffffffffffffffffffffffffffffffffff16815260200183815260200182815260200194505050505060405180910390f35b61037f6004803603604081101561034757600080fd5b81019080803515159060200190929190803573ffffffffffffffffffffffffffffffffffffffff169060200190929190505050611141565b005b6103c36004803603602081101561039757600080fd5b81019080803573ffffffffffffffffffffffffffffffffffffffff1690602001909291905050506111f8565b604051808773ffffffffffffffffffffffffffffffffffffffff1673ffffffffffffffffffffffffffffffffffffffff1681526020018060200180602001861515151581526020018515151515815260200184151515158152602001838103835288818151815260200191508051906020019080838360005b8381101561045757808201518184015260208101905061043c565b50505050905090810190601f1680156104845780820380516001836020036101000a031916815260200191505b50838103825287818151815260200191508051906020019080838360005b838110156104bd5780820151818401526020810190506104a2565b50505050905090810190601f1680156104ea5780820380516001836020036101000a031916815260200191505b509850505050505050505060405180910390f35b6105066113ab565b005b6105346004803603602081101561051e57600080fd5b8101908080359060200190929190505050611641565b604051808581526020018060200180602001848152602001838103835286818151815260200191508051906020019080838360005b83811015610584578082015181840152602081019050610569565b50505050905090810190601f1680156105b15780820380516001836020036101000a031916815260200191505b50838103825285818151815260200191508051906020019080838360005b838110156105ea5780820151818401526020810190506105cf565b50505050905090810190601f1680156106175780820380516001836020036101000a031916815260200191505b50965050505050505060405180910390f35b6106316117a1565b6040518082815260200191505060405180910390f35b61064f6117ab565b604051808273ffffffffffffffffffffffffffffffffffffffff1673ffffffffffffffffffffffffffffffffffffffff16815260200191505060405180910390f35b6106996117d4565b604051808215151515815260200191505060405180910390f35b610931600480360360808110156106c957600080fd5b81019080803590602001906401000000008111156106e657600080fd5b8201836020820111156106f857600080fd5b8035906020019184600183028401116401000000008311171561071a57600080fd5b91908080601f016020809104026020016040519081016040528093929190818152602001838380828437600081840152601f19601f8201169050808301925050505050505091929192908035906020019064010000000081111561077d57600080fd5b82018360208201111561078f57600080fd5b803590602001918460018302840111640100000000831117156107b157600080fd5b91908080601f016020809104026020016040519081016040528093929190818152602001838380828437600081840152601f19601f8201169050808301925050505050505091929192908035906020019064010000000081111561081457600080fd5b82018360208201111561082657600080fd5b8035906020019184600183028401116401000000008311171561084857600080fd5b91908080601f016020809104026020016040519081016040528093929190818152602001838380828437600081840152601f19601f820116905080830192505050505050509192919290803590602001906401000000008111156108ab57600080fd5b8201836020820111156108bd57600080fd5b803590602001918460018302840111640100000000831117156108df57600080fd5b91908080601f016020809104026020016040519081016040528093929190818152602001838380828437600081840152601f19601f8201169050808301925050505050505091929192905050506117eb565b005b61093b61191a565b604051808215151515815260200191505060405180910390f35b6109816004803603602081101561096b57600080fd5b8101908080359060200190929190505050611931565b604051808273ffffffffffffffffffffffffffffffffffffffff1673ffffffffffffffffffffffffffffffffffffffff16815260200191505060405180910390f35b6109cb61196d565b6040518080602001806020018060200180602001858103855289818151815260200191508051906020019080838360005b83811015610a175780820151818401526020810190506109fc565b50505050905090810190601f168015610a445780820380516001836020036101000a031916815260200191505b50858103845288818151815260200191508051906020019080838360005b83811015610a7d578082015181840152602081019050610a62565b50505050905090810190601f168015610aaa5780820380516001836020036101000a031916815260200191505b50858103835287818151815260200191508051906020019080838360005b83811015610ae3578082015181840152602081019050610ac8565b50505050905090810190601f168015610b105780820380516001836020036101000a031916815260200191505b50858103825286818151815260200191508051906020019080838360005b83811015610b49578082015181840152602081019050610b2e565b50505050905090810190601f168015610b765780820380516001836020036101000a031916815260200191505b509850505050505050505060405180910390f35b610b92611c05565b604051808273ffffffffffffffffffffffffffffffffffffffff1673ffffffffffffffffffffffffffffffffffffffff16815260200191505060405180910390f35b610d2460048036036040811015610bea57600080fd5b8101908080359060200190640100000000811115610c0757600080fd5b820183602082011115610c1957600080fd5b80359060200191846001830284011164010000000083111715610c3b57600080fd5b91908080601f016020809104026020016040519081016040528093929190818152602001838380828437600081840152601f19601f82011690508083019250505050505050919291929080359060200190640100000000811115610c9e57600080fd5b820183602082011115610cb057600080fd5b80359060200191846001830284011164010000000083111715610cd257600080fd5b91908080601f016020809104026020016040519081016040528093929190818152602001838380828437600081840152601f19601f820116905080830192505050505050509192919290505050611c2a565b005b60001515600b60003373ffffffffffffffffffffffffffffffffffffffff1673ffffffffffffffffffffffffffffffffffffffff16815260200190815260200160002060030160019054906101000a900460ff16151514610d8657600080fd5b60011515600b60003373ffffffffffffffffffffffffffffffffffffffff1673ffffffffffffffffffffffffffffffffffffffff16815260200190815260200160002060030160009054906101000a900460ff16151514610de657600080fd5b60011515600460009054906101000a900460ff16151514610e0657600080fd5b60001515600460019054906101000a900460ff16151514610e2657600080fd5b610e2e611e20565b604051806080016040528060035481526020013373ffffffffffffffffffffffffffffffffffffffff1681526020018381526020016003543385604051602001808481526020018373ffffffffffffffffffffffffffffffffffffffff1673ffffffffffffffffffffffffffffffffffffffff1660601b8152601401828152602001935050505060405160208183030381529060405280519060200120815250905080600c600060035481526020019081526020016000206000820151816000015560208201518160010160006101000a81548173ffffffffffffffffffffffffffffffffffffffff021916908373ffffffffffffffffffffffffffffffffffffffff160217905550604082015181600201556060820151816003015590505060016003600082825401925050819055506001600b60003373ffffffffffffffffffffffffffffffffffffffff1673ffffffffffffffffffffffffffffffffffffffff16815260200190815260200160002060030160016101000a81548160ff0219169083151502179055505050565b6000600254905090565b6000809054906101000a900473ffffffffffffffffffffffffffffffffffffffff1673ffffffffffffffffffffffffffffffffffffffff163373ffffffffffffffffffffffffffffffffffffffff161461102157600080fd5b606061102b611e61565b6040518060a0016040528060015481526020018581526020018481526020016000815260200183815250905080600960006001548152602001908152602001600020600082015181600001556020820151816001019080519060200190611093929190611e90565b5060408201518160020190805190602001906110b0929190611e90565b506060820151816003015560808201518160040190805190602001906110d7929190611f10565b509050506001806000828254019250508190555050505050565b600c6020528060005260406000206000915090508060000154908060010160009054906101000a900473ffffffffffffffffffffffffffffffffffffffff16908060020154908060030154905084565b6000809054906101000a900473ffffffffffffffffffffffffffffffffffffffff1673ffffffffffffffffffffffffffffffffffffffff163373ffffffffffffffffffffffffffffffffffffffff161461119a57600080fd5b81600b60008373ffffffffffffffffffffffffffffffffffffffff1673ffffffffffffffffffffffffffffffffffffffff16815260200190815260200160002060030160006101000a81548160ff0219169083151502179055505050565b600b6020528060005260406000206000915090508060000160009054906101000a900473ffffffffffffffffffffffffffffffffffffffff1690806001018054600181600116156101000203166002900480601f0160208091040260200160405190810160405280929190818152602001828054600181600116156101000203166002900480156112ca5780601f1061129f576101008083540402835291602001916112ca565b820191906000526020600020905b8154815290600101906020018083116112ad57829003601f168201915b505050505090806002018054600181600116156101000203166002900480601f0160208091040260200160405190810160405280929190818152602001828054600181600116156101000203166002900480156113685780601f1061133d57610100808354040283529160200191611368565b820191906000526020600020905b81548152906001019060200180831161134b57829003601f168201915b5050505050908060030160009054906101000a900460ff16908060030160019054906101000a900460ff16908060030160029054906101000a900460ff16905086565b6000809054906101000a900473ffffffffffffffffffffffffffffffffffffffff1673ffffffffffffffffffffffffffffffffffffffff163373ffffffffffffffffffffffffffffffffffffffff161461140457600080fd5b6001600460016101000a81548160ff0219169083151502179055506000600460006101000a81548160ff02191690831515021790555060008090505b60035481101561163e57600c600082815260200190815260200160002060000154600c600083815260200190815260200160002060010160009054906101000a900473ffffffffffffffffffffffffffffffffffffffff16600c600084815260200190815260200160002060020154604051602001808481526020018373ffffffffffffffffffffffffffffffffffffffff1673ffffffffffffffffffffffffffffffffffffffff1660601b8152601401828152602001935050505060405160208183030381529060405280519060200120600c600083815260200190815260200160002060030154141561163157600160096000600c60008581526020019081526020016000206002015481526020019081526020016000206003016000828254019250508190555060096000600c6000848152602001908152602001600020600201548152602001908152602001600020600401600c600083815260200190815260200160002060010160009054906101000a900473ffffffffffffffffffffffffffffffffffffffff1690806001815401808255809150509060018203906000526020600020016000909192909190916101000a81548173ffffffffffffffffffffffffffffffffffffffff021916908373ffffffffffffffffffffffffffffffffffffffff160217905550505b8080600101915050611440565b50565b6009602052806000526040600020600091509050806000015490806001018054600181600116156101000203166002900480601f0160208091040260200160405190810160405280929190818152602001828054600181600116156101000203166002900480156116f35780601f106116c8576101008083540402835291602001916116f3565b820191906000526020600020905b8154815290600101906020018083116116d657829003601f168201915b505050505090806002018054600181600116156101000203166002900480601f0160208091040260200160405190810160405280929190818152602001828054600181600116156101000203166002900480156117915780601f1061176657610100808354040283529160200191611791565b820191906000526020600020905b81548152906001019060200180831161177457829003601f168201915b5050505050908060030154905084565b6000600154905090565b60008060009054906101000a900473ffffffffffffffffffffffffffffffffffffffff16905090565b6000600460019054906101000a900460ff16905090565b6000809054906101000a900473ffffffffffffffffffffffffffffffffffffffff1673ffffffffffffffffffffffffffffffffffffffff163373ffffffffffffffffffffffffffffffffffffffff161461184457600080fd5b60405180608001604052808581526020018481526020018381526020018281525060056000820151816000019080519060200190611883929190611e90565b5060208201518160010190805190602001906118a0929190611e90565b5060408201518160020190805190602001906118bd929190611e90565b5060608201518160030190805190602001906118da929190611e90565b509050506001600460006101000a81548160ff0219169083151502179055506000600460016101000a81548160ff02191690831515021790555050505050565b6000600460009054906101000a900460ff16905090565b600a818154811061193e57fe5b906000526020600020016000915054906101000a900473ffffffffffffffffffffffffffffffffffffffff1681565b6060806060806005600001600560010160056002016005600301838054600181600116156101000203166002900480601f016020809104026020016040519081016040528092919081815260200182805460018160011615610100020316600290048015611a1c5780601f106119f157610100808354040283529160200191611a1c565b820191906000526020600020905b8154815290600101906020018083116119ff57829003601f168201915b50505050509350828054600181600116156101000203166002900480601f016020809104026020016040519081016040528092919081815260200182805460018160011615610100020316600290048015611ab85780601f10611a8d57610100808354040283529160200191611ab8565b820191906000526020600020905b815481529060010190602001808311611a9b57829003601f168201915b50505050509250818054600181600116156101000203166002900480601f016020809104026020016040519081016040528092919081815260200182805460018160011615610100020316600290048015611b545780601f10611b2957610100808354040283529160200191611b54565b820191906000526020600020905b815481529060010190602001808311611b3757829003601f168201915b50505050509150808054600181600116156101000203166002900480601f016020809104026020016040519081016040528092919081815260200182805460018160011615610100020316600290048015611bf05780601f10611bc557610100808354040283529160200191611bf0565b820191906000526020600020905b815481529060010190602001808311611bd357829003601f168201915b50505050509050935093509350935090919293565b6000809054906101000a900473ffffffffffffffffffffffffffffffffffffffff1681565b611c32611f9a565b6040518060c001604052803373ffffffffffffffffffffffffffffffffffffffff16815260200184815260200183815260200160001515815260200160001515815260200160011515815250905080600b60003373ffffffffffffffffffffffffffffffffffffffff1673ffffffffffffffffffffffffffffffffffffffff16815260200190815260200160002060008201518160000160006101000a81548173ffffffffffffffffffffffffffffffffffffffff021916908373ffffffffffffffffffffffffffffffffffffffff1602179055506020820151816001019080519060200190611d23929190611e90565b506040820151816002019080519060200190611d40929190611e90565b5060608201518160030160006101000a81548160ff02191690831515021790555060808201518160030160016101000a81548160ff02191690831515021790555060a08201518160030160026101000a81548160ff021916908315150217905550905050600a3390806001815401808255809150509060018203906000526020600020016000909192909190916101000a81548173ffffffffffffffffffffffffffffffffffffffff021916908373ffffffffffffffffffffffffffffffffffffffff160217905550506001600260008282540192505081905550505050565b604051806080016040528060008152602001600073ffffffffffffffffffffffffffffffffffffffff16815260200160008152602001600080191681525090565b6040518060a0016040528060008152602001606081526020016060815260200160008152602001606081525090565b828054600181600116156101000203166002900490600052602060002090601f016020900481019282601f10611ed157805160ff1916838001178555611eff565b82800160010185558215611eff579182015b82811115611efe578251825591602001919060010190611ee3565b5b509050611f0c9190611fec565b5090565b828054828255906000526020600020908101928215611f89579160200282015b82811115611f885782518260006101000a81548173ffffffffffffffffffffffffffffffffffffffff021916908373ffffffffffffffffffffffffffffffffffffffff16021790555091602001919060010190611f30565b5b509050611f969190612011565b5090565b6040518060c00160405280600073ffffffffffffffffffffffffffffffffffffffff16815260200160608152602001606081526020016000151581526020016000151581526020016000151581525090565b61200e91905b8082111561200a576000816000905550600101611ff2565b5090565b90565b61205191905b8082111561204d57600081816101000a81549073ffffffffffffffffffffffffffffffffffffffff021916905550600101612017565b5090565b9056fea265627a7a72315820945d8e4214fe7740faa1161637b95f6e745d2abb7314d1cf46eb84615e75e7cd64736f6c63430005100032",
  "source": "// SPDX-License-Identifier: MIT\npragma solidity >=0.4.21 <0.9.0;\n\ncontract Election {\n    address public admin;\n    uint256 candidateCount;\n    uint256 voterCount;\n    uint256 ballotCount;\n    bool start;\n    bool end;\n\n    constructor() public {\n        // Initilizing default values\n        admin = msg.sender;\n        candidateCount = 0;\n        voterCount = 0;\n        ballotCount = 0;\n        start = false;\n        end = false;\n    }\n\n    // Modeling a Election Details\n    struct ElectionDetails {\n        string adminName;\n        string adminEmail;\n        string electionTitle;\n        string electionDescription;\n    }\n    ElectionDetails electionDetails;\n\n    // Modeling a candidate\n    struct Candidate {\n        uint256 candidateId;\n        string header;\n        string description;\n        uint256 voteCount;\n        address[] votersList;\n    }\n    mapping(uint256 => Candidate) public candidateDetails;\n\n    // Modeling a voter\n    struct Voter {\n        address voterAddress;\n        string name;\n        string email;\n        bool isVerified;\n        bool hasVoted;\n        bool isRegistered;\n    }\n    address[] public voters; // Array of address to store address of voters\n    mapping(address => Voter) public voterDetails;\n\n    struct Ballot {\n        uint256 ballotId;\n        address voterAddress;\n        uint256 candidateId;\n        bytes32 ballotHash;\n    }\n    mapping(uint256 => Ballot) public ballotDetails;\n    \n    function getAdmin() public view returns (address) {\n        return admin;\n    }\n\n    modifier onlyAdmin() {\n        // Modifier for only admin access\n        require(msg.sender == admin);\n        _;\n    }\n\n    function setElectionDetails(\n        string memory _adminName,\n        string memory _adminEmail,\n        string memory _electionTitle,\n        string memory _electionDescription\n    )\n        public\n        // Only admin can add\n        onlyAdmin\n    {\n        electionDetails = ElectionDetails(\n            _adminName,\n            _adminEmail,\n            _electionTitle,\n            _electionDescription\n        );\n        start = true;\n        end = false;\n    }\n\n    // Get Elections details\n    function getElectionDetails()\n    public\n    view\n    returns(string memory adminName, \n    string memory adminEmail, \n    string memory electionTitle, \n    string memory electionDescription){\n        return(electionDetails.adminName, \n        electionDetails.adminEmail,  \n        electionDetails.electionTitle, \n        electionDetails.electionDescription);\n    }\n\n    // Adding new candidates\n    function addCandidate(string memory _header, string memory _description)\n        public\n        // Only admin can add\n        onlyAdmin\n    {\n        address[] memory votersAddress;\n        Candidate memory newCandidate =\n            Candidate({\n                candidateId: candidateCount,\n                header: _header,\n                description: _description,\n                voteCount: 0,\n                votersList: votersAddress\n            });\n        candidateDetails[candidateCount] = newCandidate;\n        candidateCount += 1;\n    }\n\n    // Get candidates count\n    function getTotalCandidate() public view returns (uint256) {\n        return candidateCount;\n    }\n\n    // Get voters count\n    function getTotalVoter() public view returns (uint256) {\n        return voterCount;\n    }\n\n    // Request to be added as voter\n    function registerAsVoter(string memory _name, string memory _email) public {\n        Voter memory newVoter =\n            Voter({\n                voterAddress: msg.sender,\n                name: _name,\n                email: _email,\n                hasVoted: false,\n                isVerified: false,\n                isRegistered: true\n            });\n        voterDetails[msg.sender] = newVoter;\n        voters.push(msg.sender);\n        voterCount += 1;\n    }\n\n    // Verify voter\n    function verifyVoter(bool _verifedStatus, address voterAddress)\n        public\n        // Only admin can verify\n        onlyAdmin\n    {\n        voterDetails[voterAddress].isVerified = _verifedStatus;\n    }\n\n    // Vote\n    function vote(uint256 _candidateId) public {\n        require(voterDetails[msg.sender].hasVoted == false);\n        require(voterDetails[msg.sender].isVerified == true);\n        require(start == true);\n        require(end == false);\n\n        Ballot memory newBallot =\n            Ballot({\n                ballotId: ballotCount,\n                voterAddress: msg.sender,\n                candidateId: _candidateId,\n                ballotHash: keccak256(abi.encodePacked(ballotCount, msg.sender, _candidateId))\n            });\n        ballotDetails[ballotCount] = newBallot;\n        ballotCount += 1;\n\n        voterDetails[msg.sender].hasVoted = true;\n    }\n\n    // End election\n    function endElection() public onlyAdmin {\n        end = true;\n        start = false;\n\n        // Count number of vote for each candidate\n        for (uint256 i = 0; i < ballotCount; i++) {\n            if (ballotDetails[i].ballotHash == keccak256(abi.encodePacked(ballotDetails[i].ballotId, ballotDetails[i].voterAddress, ballotDetails[i].candidateId))) {\n                candidateDetails[ballotDetails[i].candidateId].voteCount += 1;\n                candidateDetails[ballotDetails[i].candidateId].votersList.push(ballotDetails[i].voterAddress);\n            }\n        }\n    }\n\n    // Get election start and end values\n    function getStart() public view returns (bool) {\n        return start;\n    }\n\n    function getEnd() public view returns (bool) {\n        return end;\n    }\n}\n",
  "sourcePath": "C:\\Users\\Quang Thinh\\Documents\\GitHub\\Capstone2024_Project2\\contracts\\Election.sol",
  "compiler": {
    "name": "solc",
    "version": "0.5.16+commit.9c3226ce.Emscripten.clang"
  },
  "schemaVersion": "3.4.16",
  "updatedAt": "2024-04-26T14:20:12.682Z",
  "networkType": "ethereum",
  "devdoc": {
    "methods": {}
  },
  "userdoc": {
    "methods": {}
  }
}